:100000000C942A000C9434000C9434000C943400AA
:100010000C9434000C9434000C9434000C94340090
:100020000C9434000C9434000C9434000C94340080
:100030000C9434000C9434000C9434000C94340070
:100040000C9434000C9434000C9434000C94340060
:100050000C94340011241FBECFE5D8E0DEBFCDBF25
:100060000E94C6180C94BD1A0C9400000F931F93A5
:10007000CF93DF93CDB7DEB7C555D1400FB6F89417
:10008000DEBF0FBECDBF9E0123573F4FD9018C93DA
:1000900040E060E080E00E945E15CE0183579F4FF4
:1000A000FC018081803241F0CE0183579F4FDC01FB
:1000B0008C91883209F09DC5CE0183579F4FFC017A
:1000C000808182958F708170482F63E080E00E946C
:1000D0005E15CE0183579F4FDC018C9182958695EA
:1000E00087708170482F64E080E00E945E15CE0129
:1000F00083579F4FFC0180818295869586958370FA
:100100008170482F65E080E00E945E15CE01835724
:100110009F4FDC018C91881F8827881F482F66E03D
:1001200080E00E945E1541E062E080E00E945E1582
:100130009E01295B3F4F80E090E0A0E8BFE3F9011A
:1001400080839183A283B3838E01055B1F4FCE0111
:10015000895B9F4F20E030E04AE755E4DC016D9178
:100160007D918D919C910E94501ACA54DF4F6883F3
:1001700079838A839B83C65BD040CA54DF4F288132
:1001800039814A815B81C65BD040D8012D933D9374
:100190004D935C931397CE01855B9F4F20E030E039
:1001A00040E85FE3FC0160817181828193810E945C
:1001B000301988234CF4CE01815B9F4F21E030E061
:1001C000DC012D933C93A2C0CE01855B9F4F20E0C4
:1001D0003FEF4FE757E4FC01608171818281938199
:1001E0000E944B1A18160CF073C0CE01895B9F4F0A
:1001F00020E030E040E251E4DC016D917D918D9191
:100200009C910E94501AC654DF4F688379838A8379
:100210009B83CA5BD040C654DF4F288139814A8115
:100220005B81CA5BD040CE55DF4F288339834A8338
:100230005B83C25AD0408E01015B1F4FCE55DF4F0A
:10024000688179818A819B81C25AD0400E94A71916
:10025000C254DF4F688379838A839B83CE5BD0400F
:10026000C254DF4FE881F981CE5BD040D801ED93D5
:10027000FC9325C0CE018F5A9F4F20E931E0DC016D
:100280002D933C93CE018F5A9F4FFC018081918129
:100290000197F1F79E012F5A3F4FD9018D939C93FF
:1002A0000000CE01815B9F4F9E01215B3F4FF90112
:1002B0002081318121503109DC012D933C93CE0105
:1002C000815B9F4FFC0180819181892B99F639C018
:1002D0008E01015B1F4FCE01855B9F4FDC016D914D
:1002E0007D918D919C910E94A719CE53DF4F688319
:1002F00079838A839B83C25CD040CE53DF4F2881B1
:100300003981C25CD040F80131832083CE018D5AFF
:100310009F4F9E01215B3F4FD9012D913C91FC01E4
:1003200031832083CE018D5A9F4FDC018D919C91AA
:100330000197F1F79E012D5A3F4FF9019183808378
:10034000000040E062E080E00E945E1580E090E006
:10035000A0E8BFE389AF9AAFABAFBCAF20E030E01D
:100360004AE755E469AD7AAD8BAD9CAD0E94501A59
:10037000CA53DF4F688379838A839B83C65CD040EE
:10038000CE01CD96CA53DF4F288139814A815B81E6
:10039000C65CD040DC012D933D934D935C93139745
:1003A00020E030E040E85FE3CE01CD96FC016081C3
:1003B0007181828193810E94301988234CF4CE018F
:1003C0008F5B9F4F21E030E0DC012D933C939CC07C
:1003D00020E03FEF4FE757E4CE01CD96FC0160816E
:1003E0007181828193810E944B1A18160CF06FC0A4
:1003F00020E030E040E251E469AD7AAD8BAD9CADD8
:100400000E94501AC653DF4F688379838A839B8387
:10041000CA5CD040C653DF4F288139814A815B8155
:10042000CA5CD040C256DF4F288339834A835B833E
:10043000CE59D0408E010F5B1F4FC256DF4F6881EF
:1004400079818A819B81CE59D0400E94A719C253DD
:10045000DF4F688379838A839B83CE5CD040C2530D
:10046000DF4FE881F981CE5CD040D801ED93FC9359
:1004700025C0CE018D5B9F4F20E931E0DC012D933B
:100480003C93CE018D5B9F4FFC0180819181019750
:10049000F1F79E012D5B3F4FD9018D939C93000096
:1004A000CE018F5B9F4F9E012F5B3F4FF901208153
:1004B000318121503109DC012D933C93CE018F5BBA
:1004C0009F4FFC0180819181892B99F638C08E0164
:1004D0000F5B1F4FCE01CD96DC016D917D918D910B
:1004E0009C910E94A719CE52DF4F688379838A833B
:1004F0009B83C25DD040CE52DF4F28813981C25DDF
:10050000D040F80131832083CE018B5B9F4F9E0149
:100510002F5B3F4FD9012D913C91FC01318320830A
:10052000CE018B5B9F4FDC018D919C910197F1F780
:100530009E012B5B3F4FF901918380830000CE0128
:1005400083579F4FDC018C9182958F708170482F6B
:1005500063E080E00E945E15CE0183579F4FFC014F
:1005600080818295869587708170482F64E080E055
:100570000E945E15CE0183579F4FDC018C918295BE
:100580008695869583708170482F65E080E00E9493
:100590005E15CE0183579F4FFC018081881F8827FD
:1005A000881F482F66E080E00E945E1541E062E00F
:1005B00080E00E945E1580E090E0A0E8BFE38BA79A
:1005C0009CA7ADA7BEA720E030E04AE755E46BA5A5
:1005D0007CA58DA59EA50E94501ACA52DF4F688344
:1005E00079838A839B83C65DD040CA52DF4F2881BE
:1005F00039814A815B81C65DD0402FA738AB49ABBA
:100600005AAB20E030E040E85FE36FA578A989A904
:100610009AA90E94301988232CF481E090E09CABC9
:100620008BAB75C020E03FEF4FE757E46FA578A98B
:1006300089A99AA90E944B1A18160CF052C020E002
:1006400030E040E251E46BA57CA58DA59EA50E94FB
:10065000501AC652DF4F688379838A839B83CA5DB1
:10066000D040C652DF4F88819981AA81BB81CA5D83
:10067000D040C656DF4F88839983AA83BB83CA596B
:10068000D040C656DF4F688179818A819B81CA59E3
:10069000D0400E94A719C252DF4F688379838A83B2
:1006A0009B83CE5DD040C252DF4FA881B981CE5D21
:1006B000D040BCABABAB10C080E991E09EAB8DAB42
:1006C0008DA99EA90197F1F79EAB8DAB00008BA978
:1006D0009CA901979CAB8BAB8BA99CA9892B61F73B
:1006E00021C06FA578A989A99AA90E94A719CE51FE
:1006F000DF4F688379838A839B83C25ED040CE516B
:10070000DF4FE881F981C25ED040FCABEBAB8BA937
:100710009CA998AF8FAB8FA998AD0197F1F798AFCF
:100720008FAB000040E062E080E00E945E1580E058
:1007300090E0A0E8BFE38D8F9E8FAF8FB8A320E03D
:1007400030E04AE755E46D8D7E8D8F8D98A10E9433
:10075000501ACA51DF4F688379838A839B83C65EB0
:10076000D040CA51DF4F288139814A815B81C65E02
:10077000D04029A33AA34BA35CA320E030E040E89B
:100780005FE369A17AA18BA19CA10E943019882303
:100790002CF481E090E09EA38DA375C020E03FEF94
:1007A0004FE757E469A17AA18BA19CA10E944B1A43
:1007B00018160CF052C020E030E040E251E46D8D9C
:1007C0007E8D8F8D98A10E94501AC651DF4F68838D
:1007D00079838A839B83CA5ED040C651DF4F88816C
:1007E0009981AA81BB81CA5ED040CA56DF4F8883F7
:1007F0009983AA83BB83C659D040CA56DF4F68810C
:1008000079818A819B81C659D0400E94A719C25123
:10081000DF4F688379838A839B83CE5ED040C25149
:10082000DF4FA881B981CE5ED040BEA3ADA310C07A
:1008300080E991E098A78FA38FA198A50197F1F780
:1008400098A78FA300008DA19EA101979EA38DA3C1
:100850008DA19EA1892B61F721C069A17AA18BA1ED
:100860009CA10E94A719CE50DF4F688379838A83A9
:100870009B83C25FD040CE50DF4FE881F981C25FD9
:10088000D040FEA3EDA38DA19EA19AA789A789A51B
:100890009AA50197F1F79AA789A70000CE0183577F
:1008A0009F4FDC018C918170482F63E080E00E94B3
:1008B0005E15CE0183579F4FFC0180818695817024
:1008C000482F64E080E00E945E15CE0183579F4F61
:1008D000DC018C91869586958170482F65E080E0DB
:1008E0000E945E15CE0183579F4FFC018081869543
:1008F000869586958170482F66E080E00E945E159F
:1009000041E062E080E00E945E1580E090E0A0E8B7
:10091000BFE38F87988BA98BBA8B20E030E04AE742
:1009200055E46F85788989899A890E94501ACA503E
:10093000DF4F688379838A839B83C65FD040CA5028
:10094000DF4F288139814A815B81C65FD0402B8B84
:100950003C8B4D8B5E8B20E030E040E85FE36B89A1
:100960007C898D899E890E94301988232CF481E02E
:1009700090E0988F8F8B75C020E03FEF4FE757E4F2
:100980006B897C898D899E890E944B1A18160CF000
:1009900052C020E030E040E251E46F8578898989D7
:1009A0009A890E94501AC650DF4F688379838A83E0
:1009B0009B83CA5FD040C650DF4F88819981AA814E
:1009C000BB81CA5FD040CE56DF4F88839983AA830C
:1009D000BB83C259D040CE56DF4F688179818A816E
:1009E0009B81C259D0400E94A719C250DF4F688333
:1009F00079838A839B83CE5FD040C250DF4FA8812A
:100A0000B981CE5FD040B88FAF8B10C080E991E044
:100A10009A8F898F898D9A8D0197F1F79A8F898F97
:100A200000008F89988D0197988F8F8B8F89988D73
:100A3000892B61F721C06B897C898D899E890E94F1
:100A4000A719CE5FDE4F688379838A839B83C25068
:100A5000D140CE5FDE4FE881F981C250D140F88F9E
:100A6000EF8B8F89988D9C8F8B8F8B8D9C8D0197B1
:100A7000F1F79C8F8B8F000040E062E080E00E94E5
:100A80005E1580E090E0A0E8BFE389839A83AB83A2
:100A9000BC8320E030E04AE755E469817A818B81AC
:100AA0009C810E94501ACA5FDE4F688379838A83D3
:100AB0009B83C650D140CA5FDE4F288139814A816D
:100AC0005B81C650D1402D833E834F83588720E001
:100AD00030E040E85FE36D817E818F8198850E94E0
:100AE000301988232CF481E090E09A87898775C0BB
:100AF00020E03FEF4FE757E46D817E818F8198853D
:100B00000E944B1A18160CF052C020E030E040E270
:100B100051E469817A818B819C810E94501AC65F61
:100B2000DE4F688379838A839B83CA50D140C65F36
:100B3000DE4F88819981AA81BB81CA50D140C257BA
:100B4000DF4F88839983AA83BB83CE58D040C25796
:100B5000DF4F688179818A819B81CE58D0400E9485
:100B6000A719C25FDE4F688379838A839B83CE5047
:100B7000D140C25FDE4FA881B981CE50D140BA8743
:100B8000A98710C080E991E09C878B878B859C8525
:100B90000197F1F79C878B87000089859A850197DB
:100BA0009A87898789859A85892B61F721C06D810C
:100BB0007E818F8198850E94A719CE5EDE4F688363
:100BC00079838A839B83C251D140CE5EDE4FE88118
:100BD000F981C251D140FA87E98789859A859E8734
:100BE0008D878D859E850197F1F79E878D87000003
:100BF000A1C4CE0183579F4FDC018C9182958F70E9
:100C00008170482F63E080E00E945E15CE0183571B
:100C10009F4FFC0180818295869587708170482F57
:100C200064E080E00E945E15CE0183579F4FDC0197
:100C30008C9182958695869583708170482F65E0AA
:100C400080E00E945E15CE0183579F4FFC0180819A
:100C5000881F8827881F482F66E080E00E945E1565
:100C600041E062E080E00E945E159E0121583F4F06
:100C700080E090E0A0E8BFE3F90180839183A28344
:100C8000B3838E010D571F4FCE0181589F4F20E037
:100C900030E04AE755E4DC016D917D918D919C91A6
:100CA0000E94501ACA5EDE4F688379838A839B83D1
:100CB000C651D140CA5EDE4F288139814A815B81AD
:100CC000C651D140D8012D933D934D935C9313971A
:100CD000CE018D579F4F20E030E040E85FE3FC01FC
:100CE00060817181828193810E94301988234CF444
:100CF000CE0189579F4F21E030E0DC012D933C93DA
:100D0000A2C0CE018D579F4F20E03FEF4FE757E441
:100D1000FC0160817181828193810E944B1A1816B7
:100D20000CF073C0CE0181589F4F20E030E040E2CC
:100D300051E4DC016D917D918D919C910E94501A3E
:100D4000C65EDE4F688379838A839B83CA51D14014
:100D5000C65EDE4F288139814A815B81CA51D1400C
:100D6000CE54DF4F288339834A835B83C25BD040F4
:100D70008E0109571F4FCE54DF4F688179818A81D8
:100D80009B81C25BD0400E94A719C25EDE4F688380
:100D900079838A839B83CE51D140C25EDE4FE88146
:100DA000F981CE51D140D801ED93FC9325C0CE01FD
:100DB00087579F4F20E931E0DC012D933C93CE0112
:100DC00087579F4FFC01808191810197F1F79E0128
:100DD00027573F4FD9018D939C930000CE0189572F
:100DE0009F4F9E0129573F4FF901208131812150AA
:100DF0003109DC012D933C93CE0189579F4FFC01B3
:100E000080819181892B99F639C08E0109571F4F36
:100E1000CE018D579F4FDC016D917D918D919C91FD
:100E20000E94A719CE5DDE4F688379838A839B83F6
:100E3000C252D140CE5DDE4F28813981C252D140AD
:100E4000F80131832083CE0185579F4F9E0129579A
:100E50003F4FD9012D913C91FC0131832083CE017C
:100E600085579F4FDC018D919C910197F1F79E0171
:100E700025573F4FF90191838083000040E062E0F5
:100E800080E00E945E159E012F583F4F80E090E069
:100E9000A0E8BFE3F90180839183A283B3838E012D
:100EA0000B581F4FCE018F589F4F20E030E04AE78C
:100EB00055E4DC016D917D918D919C910E94501AB9
:100EC000CA5DDE4F688379838A839B83C652D14093
:100ED000CA5DDE4F288139814A815B81C652D1408B
:100EE000D8012D933D934D935C931397CE018B586E
:100EF0009F4F20E030E040E85FE3FC0160817181BA
:100F0000828193810E94301988234CF4CE01875846
:100F10009F4F21E030E0DC012D933C93A2C0CE0135
:100F20008B589F4F20E03FEF4FE757E4FC01608173
:100F30007181828193810E944B1A18160CF073C044
:100F4000CE018F589F4F20E030E040E251E4DC01B9
:100F50006D917D918D919C910E94501AC65DDE4FDE
:100F6000688379838A839B83CA52D140C65DDE4FF2
:100F7000288139814A815B81CA52D140C255DF4FF5
:100F8000288339834A835B83CE5AD0408E01075829
:100F90001F4FC255DF4F688179818A819B81CE5A6C
:100FA000D0400E94A719C25DDE4F688379838A838F
:100FB0009B83CE52D140C25DDE4FE881F981CE5293
:100FC000D140D801ED93FC9325C0CE0185589F4FA9
:100FD00020E931E0DC012D933C93CE0185589F4FF1
:100FE000FC01808191810197F1F79E0125583F4FC7
:100FF000D9018D939C930000CE0187589F4F9E018D
:1010000027583F4FF9012081318121503109DC01FE
:101010002D933C93CE0187589F4FFC018081918195
:10102000892B99F639C08E0107581F4FCE018B5876
:101030009F4FDC016D917D918D919C910E94A7192C
:10104000CE5CDE4F688379838A839B83C253D14011
:10105000CE5CDE4F28813981C253D140F801318303
:101060002083CE0183589F4F9E0127583F4FD901BF
:101070002D913C91FC0131832083CE0183589F4FF9
:10108000DC018D919C910197F1F79E0123583F4F10
:10109000F901918380830000CE0183579F4FDC01CB
:1010A0008C918170482F63E080E00E945E15CE0134
:1010B00083579F4FFC01808186958170482F64E0A3
:1010C00080E00E945E15CE0183579F4FDC018C911A
:1010D000869586958170482F65E080E00E945E15B8
:1010E000CE0183579F4FFC0180818695869586951A
:1010F0008170482F66E080E00E945E1541E062E06A
:1011000080E00E945E159E012D593F4F80E090E0E7
:10111000A0E8BFE3F90180839183A283B3838E01AA
:1011200009591F4FCE018D599F4F20E030E04AE70B
:1011300055E4DC016D917D918D919C910E94501A36
:10114000CA5CDE4F688379838A839B83C653D14010
:10115000CA5CDE4F288139814A815B81C653D14008
:10116000D8012D933D934D935C931397CE018959EC
:101170009F4F20E030E040E85FE3FC016081718137
:10118000828193810E94301988234CF4CE018559C5
:101190009F4F21E030E0DC012D933C93A2C0CE01B3
:1011A00089599F4F20E03FEF4FE757E4FC016081F2
:1011B0007181828193810E944B1A18160CF073C0C2
:1011C000CE018D599F4F20E030E040E251E4DC0138
:1011D0006D917D918D919C910E94501AC65CDE4F5D
:1011E000688379838A839B83CA53D140C65CDE4F70
:1011F000288139814A815B81CA53D140C655DF4F6E
:10120000288339834A835B83CA5AD0408E010559AB
:101210001F4FC655DF4F688179818A819B81CA5AE9
:10122000D0400E94A719C25CDE4F688379838A830D
:101230009B83CE53D140C25CDE4FE881F981CE530F
:10124000D140D801ED93FC9325C0CE0183599F4F27
:1012500020E931E0DC012D933C93CE0183599F4F6F
:10126000FC01808191810197F1F79E0123593F4F45
:10127000D9018D939C930000CE0185599F4F9E010B
:1012800025593F4FF9012081318121503109DC017D
:101290002D933C93CE0185599F4FFC018081918114
:1012A000892B99F639C08E0105591F4FCE018959F6
:1012B0009F4FDC016D917D918D919C910E94A719AA
:1012C000CE5BDE4F688379838A839B83C254D1408F
:1012D000CE5BDE4F28813981C254D140F801318381
:1012E0002083CE0181599F4F9E0125593F4FD9013F
:1012F0002D913C91FC0131832083CE0181599F4F78
:10130000DC018D919C910197F1F79E0121593F4F8E
:10131000F90191838083000040E062E080E00E9458
:101320005E159E012B5A3F4F80E090E0A0E8BFE39E
:10133000F90180839183A283B3838E01075A1F4FE3
:10134000CE018B5A9F4F20E030E04AE755E4DC01A4
:101350006D917D918D919C910E94501ACA5BDE4FD8
:10136000688379838A839B83C654D140CA5BDE4FEE
:10137000288139814A815B81C654D140D8012D939F
:101380003D934D935C931397CE01875A9F4F20E076
:1013900030E040E85FE3FC016081718182819381EC
:1013A0000E94301988234CF4CE01835A9F4F21E0CC
:1013B00030E0DC012D933C93A2C0CE01875A9F4FB1
:1013C00020E03FEF4FE757E4FC01608171818281AB
:1013D00093810E944B1A18160CF073C0CE018B5AE1
:1013E0009F4F20E030E040E251E4DC016D917D91BF
:1013F0008D919C910E94501AC65BDE4F6883798361
:101400008A839B83CA54D140C65BDE4F28813981D1
:101410004A815B81CA54D140CA55DF4F2883398342
:101420004A835B83C65AD0408E01035A1F4FCA5568
:10143000DF4F688179818A819B81C65AD0400E94A2
:10144000A719C25BDE4F688379838A839B83CE545E
:10145000D140C25BDE4FE881F981CE54D140D80142
:10146000ED93FC9325C0CE01815A9F4F20E931E0D6
:10147000DC012D933C93CE01815A9F4FFC0180816A
:1014800091810197F1F79E01215A3F4FD9018D9328
:101490009C930000CE01835A9F4F9E01235A3F4FD9
:1014A000F9012081318121503109DC012D933C93D8
:1014B000CE01835A9F4FFC0180819181892B99F63F
:1014C00039C08E01035A1F4FCE01875A9F4FDC014E
:1014D0006D917D918D919C910E94A719CE5ADE4FFE
:1014E000688379838A839B83C255D140CE5ADE4F6D
:1014F00028813981C255D140F80131832083CE0142
:101500008F599F4F9E01235A3F4FD9012D913C91F6
:10151000FC0131832083CE018F599F4FDC018D91D7
:101520009C910197F1F79E012F593F4FF90191834B
:10153000808300000000CB5ADE4F0FB6F894DEBF68
:101540000FBECDBFDF91CF911F910F910895CF9323
:10155000DF93CDB7DEB7A3970FB6F894DEBF0FBE0B
:10156000CDBF8F8741E061E080E00E945E158F85EE
:101570000E94360080E090E0A0E2B1E489839A8383
:10158000AB83BC8320E030E04AE755E469817A818F
:101590008B819C810E94501A6C8B7D8B8E8B9F8BD4
:1015A0008C899D89AE89BF898D839E83AF83B887DF
:1015B00020E030E040E85FE36D817E818F81988597
:1015C0000E94301988232CF481E090E09A87898763
:1015D00054C020E03FEF4FE757E46D817E818F815B
:1015E00098850E944B1A1816D4F520E030E040E2AE
:1015F00051E469817A818B819C810E94501A688FA5
:10160000798F8A8F9B8F888D998DAA8DBB8D888BC2
:10161000998BAA8BBB8B688979898A899B890E945F
:10162000A7196C8F7D8F8E8F9F8FAC8DBD8DBA87E4
:10163000A98710C080E991E09C878B878B859C856A
:101640000197F1F79C878B87000089859A85019720
:101650009A87898789859A85892B61F719C06D8159
:101660007E818F8198850E94A71968A379A38AA398
:101670009BA388A199A19A87898789859A859E8746
:101680008D878D859E850197F1F79E878D87000058
:101690000000A3960FB6F894DEBF0FBECDBFDF915A
:1016A000CF910895CF93DF93CDB7DEB7A3970FB651
:1016B000F894DEBF0FBECDBF8F8740E061E080E0D1
:1016C0000E945E158F850E94360080E090E0A0E2C7
:1016D000B1E489839A83AB83BC8320E030E04AE79E
:1016E00055E469817A818B819C810E94501A6C8BB0
:1016F0007D8B8E8B9F8B8C899D89AE89BF898D83D5
:101700009E83AF83B88720E030E040E85FE36D81DF
:101710007E818F8198850E94301988232CF481E086
:1017200090E09A87898754C020E03FEF4FE757E465
:101730006D817E818F8198850E944B1A1816D4F591
:1017400020E030E040E251E469817A818B819C8124
:101750000E94501A688F798F8A8F9B8F888D998D00
:10176000AA8DBB8D888B998BAA8BBB8B6889798955
:101770008A899B890E94A7196C8F7D8F8E8F9F8F7E
:10178000AC8DBD8DBA87A98710C080E991E09C8798
:101790008B878B859C850197F1F79C878B87000051
:1017A00089859A8501979A87898789859A85892B62
:1017B00061F719C06D817E818F8198850E94A7197C
:1017C00068A379A38AA39BA388A199A19A878987F3
:1017D00089859A859E878D878D859E850197F1F7EE
:1017E0009E878D8700000000A3960FB6F894DEBF99
:1017F0000FBECDBFDF91CF9108950F931F93CF936D
:10180000DF93CDB7DEB7C65FD1090FB6F894DEBF60
:101810000FBECDBF41E062E080E00E94631441E072
:1018200061E080E00E94631441E060E080E00E949B
:10183000631441E063E080E00E94631441E064E0EF
:1018400080E00E94631441E065E080E00E94631440
:1018500041E066E080E00E94631440E062E080E0E6
:101860000E945E159E01235A3F4F80E090E0A8E45D
:10187000B2E4F90180839183A283B3838E010F596F
:101880001F4FCE01835A9F4F20E030E04AE755E4D6
:10189000DC016D917D918D919C910E94501AC158EF
:1018A000DF4F688379838A839B83CF57D040C158A9
:1018B000DF4F88819981AA81BB81CF57D040F80141
:1018C00080839183A283B383CE018F599F4F20E001
:1018D00030E040E85FE3DC016D917D918D919C915A
:1018E0000E94301988234CF4CE018B599F4F21E080
:1018F00030E0FC01318320839EC0CE018F599F4F81
:1019000020E03FEF4FE757E4DC016D917D918D9131
:101910009C910E944B1A18160CF06FC0CE01835A8E
:101920009F4F20E030E040E251E4FC016081718192
:10193000828193810E94501ACD57DF4F688379834B
:101940008A839B83C358D040CD57DF4F88819981CC
:10195000AA81BB81C358D040EF968CAF9DAFAEAF8C
:10196000BFAFEF978E010B591F4FEF966CAD7DAD5A
:101970008EAD9FADEF970E94A719C957DF4F6883BF
:1019800079838A839B83C758D040C957DF4FE8814A
:10199000F981C758D040D801ED93FC9325C0CE0102
:1019A00089599F4F20E931E0DC012D933C93CE0112
:1019B00089599F4FFC01808191810197F1F79E0128
:1019C00029593F4FD9018D939C930000CE018B592B
:1019D0009F4F9E012B593F4FF901208131812150AA
:1019E0003109DC012D933C93CE018B599F4FFC01B3
:1019F00080819181892B99F639C08E010B591F4F37
:101A0000CE018F599F4FDC016D917D918D919C91FD
:101A10000E94A719C557DF4F688379838A839B8308
:101A2000CB58D040C557DF4F88819981CB58D040E3
:101A3000F80191838083CE0187599F4F9E012B59D6
:101A40003F4FD9012D913C91FC0131832083CE0180
:101A500087599F4FDC018D919C910197F1F79E0171
:101A600027593F4FF90191838083000088E20E944B
:101A7000520B80E090E0A8E4B2E49E01235C3F4F6B
:101A8000F90180839183A283B3838E010F5B1F4F83
:101A90002BEA3AEA4AEA50E4CE01CD96DC016D9198
:101AA0007D918D919C910E94501AC157DF4F6883A0
:101AB00079838A839B83CF58D040C157DF4F888179
:101AC0009981AA81BB81CF58D040F801808391834E
:101AD000A283B3838E010B5B1F4F20E030E040E810
:101AE00050E4CE01CD96DC016D917D918D919C915C
:101AF0000E94501ACD56DF4F688379838A839B8377
:101B0000C359D040CD56DF4F88819981AA81BB81CE
:101B1000C359D040F80180839183A283B383CE015F
:101B20008F5B9F4F20E030E040E85FE3DC016D9188
:101B30007D918D919C910E94301988233CF4CE01B7
:101B4000875B9F4F21E0FC01208394C1CE018B5B1A
:101B50009F4F20E03FEF4FE757E4DC016D917D910F
:101B60008D919C910E944B1A18160CF01DC120E01B
:101B700030E04AE754E4CE01CD96FC0160817181EA
:101B8000828193810E943519C956DF4F688379831A
:101B90008A839B83C759D040C956DF4F888199817A
:101BA000AA81BB81C759D0409E01265B3F4FF901F6
:101BB00080839183A283B3838E01025B1F4FCE018A
:101BC000865B9F4F20E030E04AE755E4DC016D91F1
:101BD0007D918D919C910E94501AC556DF4F68836C
:101BE00079838A839B83CB59D040C556DF4F888148
:101BF0009981AA81BB81CB59D040F8018083918320
:101C0000A283B383CE01825B9F4F20E030E040E8A7
:101C10005FE3DC016D917D918D919C910E94301963
:101C200088234CF4CE018E5A9F4F21E030E0FC0116
:101C3000318320839EC0CE01825B9F4F20E03FEF27
:101C40004FE757E4DC016D917D918D919C910E944D
:101C50004B1A18160CF06FC0CE01865B9F4F20E028
:101C600030E040E251E4FC01608171818281938126
:101C70000E94501AC156DF4F688379838A839B8301
:101C8000CF59D040C156DF4F88819981AA81BB814D
:101C9000CF59D040EB968CAF9DAFAEAFBFAFEB97B7
:101CA0008E010E5A1F4FEB966CAD7DAD8EAD9FAD84
:101CB000EB970E94A719CD55DF4F688379838A83FC
:101CC0009B83C35AD040CD55DF4FE881F981C35A79
:101CD000D040D801ED93FC9325C0CE018C5A9F4F84
:101CE00020E931E0DC012D933C93CE018C5A9F4FCB
:101CF000FC01808191810197F1F79E012C5A3F4FA1
:101D0000D9018D939C930000CE018E5A9F4F9E0166
:101D10002E5A3F4FF9012081318121503109DC01D8
:101D20002D933C93CE018E5A9F4FFC01808191816F
:101D3000892B99F69FC08E010E5A1F4FCE01825BF0
:101D40009F4FDC016D917D918D919C910E94A7190F
:101D5000C955DF4F688379838A839B83C75AD040F4
:101D6000C955DF4F88819981C75AD040F8019183C6
:101D70008083CE018A5A9F4F9E012E5A3F4FD90130
:101D80002D913C91FC0131832083CE018A5A9F4FD3
:101D9000DC018D919C910197F1F79E012A5A3F4FEA
:101DA000F9019183808366C0CE018F5B9F4F20E055
:101DB00030E04FE753E4DC016D917D918D919C9172
:101DC0000E944B1A1816D4F58E01085A1F4FCE01E7
:101DD0008B5B9F4FFC0160817181828193810E94A6
:101DE000A719C555DF4F688379838A839B83CB5AB4
:101DF000D040C555DF4FE881F981CB5AD040D8019A
:101E0000ED93FC93CE01865A9F4F9E01285A3F4F77
:101E1000D9012D913C91FC0131832083CE01865A5A
:101E20009F4FDC018D919C910197F1F79E01265AFD
:101E30003F4FF90191838083000034C08E01075B1E
:101E40001F4FCE018F5B9F4FDC016D917D918D9176
:101E50009C910E94A719C155DF4F688379838A83BB
:101E60009B83CF5AD040C155DF4F8881CF5AD04095
:101E7000F8018083CE01845A9F4F9E01275B3F4F1C
:101E8000D9012C91FC012083CE01845A9F4FDC01A3
:101E90008C91282F2A95F1F7CE01845A9F4FFC018F
:101EA000208300008CE00E94520B80E090E0A8E4C8
:101EB000B2E48D8F9E8FAF8FB8A32BEA3AEA4AEA3D
:101EC00050E46D8D7E8D8F8D98A10E94501ACD5457
:101ED000DF4F688379838A839B83C35BD040CD5473
:101EE000DF4F88819981AA81BB81C35BD04089A3E0
:101EF0009AA3ABA3BCA320E030E040E850E46D8D92
:101F00007E8D8F8D98A10E94501AC954DF4F68832F
:101F100079838A839B83C75BD040C954DF4F888114
:101F20009981AA81BB81C75BD0408DA39EA3AFA33B
:101F3000B8A720E030E040E85FE369A17AA18BA177
:101F40009CA10E94301988231CF481E089A718C144
:101F500020E03FEF4FE757E46DA17EA18FA198A548
:101F60000E944B1A18160CF0C9C020E030E04AE776
:101F700054E46D8D7E8D8F8D98A10E943519C554C6
:101F8000DF4F688379838A839B83CB5BD040C554C2
:101F9000DF4F88819981AA81BB81CB5BD0408AA722
:101FA0009BA7ACA7BDA720E030E04AE755E46AA5AF
:101FB0007BA58CA59DA50E94501AC154DF4F688354
:101FC00079838A839B83CF5BD040C154DF4F888164
:101FD0009981AA81BB81CF5BD0408EA79FA7A8AB78
:101FE000B9AB20E030E040E85FE36EA57FA588A9AB
:101FF00099A90E94301988232CF481E090E09BABD2
:102000008AAB71C020E03FEF4FE757E46EA57FA594
:1020100088A999A90E944B1A18160CF04EC020E00E
:1020200030E040E251E46AA57BA58CA59DA50E9405
:10203000501ACD53DF4F688379838A839B83C35CB7
:10204000D040CD53DF4F88819981AA81BB81C35C89
:10205000D040E7968CAF9DAFAEAFBFAFE797E796A6
:102060006CAD7DAD8EAD9FADE7970E94A719C953AA
:10207000DF4F688379838A839B83C75CD040C953D1
:10208000DF4FA881B981C75CD040BBABAAAB10C001
:1020900080E991E09DAB8CAB8CA99DA90197F1F7EC
:1020A0009DAB8CAB00008AA99BA901979BAB8AAB27
:1020B0008AA99BA9892B61F763C06EA57FA588A912
:1020C00099A90E94A719C553DF4F688379838A8332
:1020D0009B83CB5CD040C553DF4FE881F981CB5C5B
:1020E000D040FBABEAAB8AA99BA99FAB8EAB8EA974
:1020F0009FA90197F1F79FAB8EAB42C020E030E083
:102100004FE753E469A17AA18BA19CA10E944B1ACD
:10211000181614F56DA17EA18FA198A50E94A7198C
:10212000C153DF4F688379838A839B83CF5CD04020
:10213000C153DF4F88819981CF5CD04099AF88AF80
:1021400088AD99AD9BAF8AAF8AAD9BAD0197F1F792
:102150009BAF8AAF00001BC069A17AA18BA19CA193
:102160000E94A719CD52DF4F688379838A839B83AE
:10217000C35DD040CD52DF4F9881C35DD04099A759
:1021800089A58CAF8CAD8A95F1F78CAF000081E00A
:102190000E94520B80E090E0A0E0B0E48F87988B23
:1021A000A98BBA8B20E030E04AE755E46F85788947
:1021B00089899A890E94501AC952DF4F68837983AE
:1021C0008A839B83C75DD040C952DF4F8881998144
:1021D000AA81BB81C75DD0408B8B9C8BAD8BBE8BA6
:1021E00020E030E040E85FE36B897C898D899E893F
:1021F0000E94301988232CF481E090E0988F8F8B17
:1022000071C020E03FEF4FE757E46B897C898D89EF
:102210009E890E944B1A18160CF04EC020E030E048
:1022200040E251E46F85788989899A890E94501A21
:10223000C552DF4F688379838A839B83CB5DD0400F
:10224000C552DF4F88819981AA81BB81CB5DD04087
:10225000E3968CAF9DAFAEAFBFAFE397E3966CADA7
:102260007DAD8EAD9FADE3970E94A719C152DF4FA0
:10227000688379838A839B83CF5DD040C152DF4FCF
:10228000A881B981CF5DD040B88FAF8B10C080E9F5
:1022900091E09A8F898F898D9A8D0197F1F79A8FA6
:1022A000898F00008F89988D0197988F8F8B8F89E8
:1022B000988D892B61F721C06B897C898D899E89D6
:1022C0000E94A719CD51DF4F688379838A839B834E
:1022D000C35ED040CD51DF4FE881F981C35ED0406D
:1022E000F88FEF8B8F89988D9C8F8B8F8B8D9C8D2A
:1022F0000197F1F79C8F8B8F000086E00E94520BB4
:1023000080E80E94520B80E090E0A8E4B2E4898368
:102310009A83AB83BC8320E030E04AE755E46981CF
:102320007A818B819C810E94501AC951DF4F68834A
:1023300079838A839B83C75ED040C951DF4F8881F0
:102340009981AA81BB81C75ED0408D839E83AF8374
:10235000B88720E030E040E85FE36D817E818F81C7
:1023600098850E94301988232CF481E090E09A87A8
:10237000898771C020E03FEF4FE757E46D817E8190
:102380008F8198850E944B1A18160CF04EC020E0E1
:1023900030E040E251E469817A818B819C810E9426
:1023A000501AC551DF4F688379838A839B83CB5E44
:1023B000D040C551DF4F88819981AA81BB81CB5E16
:1023C000D040AF968CAF9DAFAEAFBFAFAF97AF96DB
:1023D0006CAD7DAD8EAD9FADAF970E94A719C15179
:1023E000DF4F688379838A839B83CF5ED040C1515E
:1023F000DF4FA881B981CF5ED040BA87A98710C0CE
:1024000080E991E09C878B878B859C850197F1F70C
:102410009C878B87000089859A8501979A87898791
:1024200089859A85892B61F721C06D817E818F8195
:1024300098850E94A719CD50DF4F688379838A83DE
:102440009B83C35FD040CD50DF4FE881F981C35FEC
:10245000D040FA87E98789859A859E878D878D8503
:102460009E850197F1F79E878D8700000000CA5076
:10247000DF4F0FB6F894DEBF0FBECDBFDF91CF9117
:102480001F910F910895CF93DF9300D00F92CDB796
:10249000DEB79B838A8319821DC08981882F90E0D3
:1024A0002A813B81820F931FFC018081803221F4BD
:1024B00080E10E94A70A0BC08981882F90E02A81C1
:1024C0003B81820F931FFC0180810E94A70A8981B2
:1024D0008F5F89838981882F90E02A813B81820FD9
:1024E000931FFC0180818823C1F6000000000F903B
:1024F0000F900F90DF91CF9108950F931F93CF937B
:10250000DF93CDB7DEB7AB970FB6F894DEBF0FBE43
:10251000CDBF6C877D878E879F878C859D85AE8597
:10252000BF850A97A105B10528F48C85805D0E94BE
:10253000A70ADAC019828C859D85AE85BF858A83FE
:102540009B83AC83BD831DC089818F5F89838A8112
:102550009B81AC81BD81888B998BAA8BBB8B0AE058
:1025600010E020E030E0688979898A899B89A90197
:1025700098010E940E19DA01C9018A839B83AC83FA
:10258000BD838A819B81AC81BD81892B8A2B8B2B5A
:10259000D9F61E821F82188619865AC08C859D85A1
:1025A000AE85BF858C8B9D8BAE8BBF8B0AE010E018
:1025B00020E030E06C897D898E899F89A90198018E
:1025C0000E940E19688F798F8A8F9B8F888D998DC5
:1025D000AA8DBB8D8B878C859D85AE85BF858C8FA5
:1025E0009D8FAE8FBF8F0AE010E020E030E06C8D51
:1025F0007D8D8E8D9F8DA90198010E940E19DA01A3
:10260000C9018C879D87AE87BF878B85082F10E017
:1026100020E030E04E815F8168857985DB01CA0169
:10262000880F991FAA1FBB1F880F991FAA1FBB1FC6
:10263000840F951FA61FB71F880F991FAA1FBB1FC6
:10264000800F911FA21FB31F8E839F83A887B98716
:102650008C859D85AE85BF85892B8A2B8B2B09F0B8
:102660009DCF3EC08E819F81A885B98588A399A3FF
:10267000AAA3BBA30AE010E020E030E068A179A1A2
:102680008AA19BA1A90198010E940E196CA37DA3A8
:102690008EA39FA38CA19DA1AEA1BFA18A878A858D
:1026A000805D0E94A70A8E819F81A885B98588A731
:1026B00099A7AAA7BBA70AE010E020E030E068A530
:1026C00079A58AA59BA5A90198010E940E19DA0196
:1026D000C9018E839F83A887B987898181508983A7
:1026E000898118160CF4BECF0000AB960FB6F89493
:1026F000DEBF0FBECDBFDF91CF911F910F91089527
:10270000CF93DF9300D0CDB7DEB789836A83898109
:10271000882329F48A8180580E94520B07C089813E
:10272000813021F48A8180540E94520B00000F9066
:102730000F90DF91CF910895CF93DF93CDB7DEB7A0
:10274000A6970FB6F894DEBF0FBECDBF998B888BCE
:102750006A8B80E40E94520B19820EC08981882FF7
:1027600090E028893989820F931FDC018C910E94A7
:10277000A70A89818F5F89838981282F30E08A8920
:10278000882F90E0880F991F880F991F880F991F35
:10279000281739071CF380E090E0A8E4B2E48A83AC
:1027A0009B83AC83BD8320E030E04AE755E46A8137
:1027B0007B818C819D810E94501A6F8B788F898FCD
:1027C0009A8F8F89988DA98DBA8D8E839F83A887C4
:1027D000B98720E030E040E85FE36E817F81888543
:1027E00099850E94301988232CF481E090E09B8722
:1027F0008A8754C020E03FEF4FE757E46E817F8126
:10280000888599850E944B1A1816D4F520E030E08F
:1028100040E251E46A817B818C819D810E94501A43
:102820006B8F7C8F8D8F9E8F8B8D9C8DAD8DBE8D94
:102830008B8B9C8BAD8BBE8B6B897C898D899E89A4
:102840000E94A7196F8F78A389A39AA3AF8DB8A10F
:10285000BB87AA8710C080E991E09D878C878C8513
:102860009D850197F1F79D878C8700008A859B8560
:1028700001979B878A878A859B85892B61F719C079
:102880006E817F81888599850E94A7196BA37CA39F
:102890008DA39EA3EBA1FCA1FB87EA878A859B857C
:1028A0009F878E878E859F850197F1F79F878E87FB
:1028B00000000000A6960FB6F894DEBF0FBECDBF95
:1028C000DF91CF910895CF93DF9300D00F92CDB7D2
:1028D000DEB789836A834B838B81813009F06FC0B7
:1028E0008981882F90E08330910509F452C08430AB
:1028F00091050CF0DCC082309105A9F1833091057F
:102900000CF0D5C0009719F00197B9F0D0C08AE358
:1029100090E0FC018081482F8A81282F30E081E0FF
:1029200090E002C0880F991F2A95E2F7242F282BE8
:102930008AE390E0FC012083BAC087E390E0FC01C9
:102940008081482F8A81282F30E081E090E002C00A
:10295000880F991F2A95E2F7242F282B87E390E010
:10296000FC012083A4C084E390E0FC018081482F17
:102970008A81282F30E081E090E002C0880F991F03
:102980002A95E2F7242F282B84E390E0FC01208392
:102990008EC081E390E0FC018081482F8A81282F3E
:1029A00030E081E090E002C0880F991F2A95E2F79D
:1029B000242F282B81E390E0FC01208378C08B81B9
:1029C000882309F073C08981882F90E083309105B6
:1029D00009F455C0843091050CF069C0823091052E
:1029E000B9F1833091050CF062C0009719F001979E
:1029F000C1F05DC08AE390E0FC018081482F8A81AC
:102A0000282F30E081E090E002C0880F991F2A95BE
:102A1000E2F78095242F28238AE390E0FC012083AD
:102A200046C087E390E0FC018081482F8A81282FEF
:102A300030E081E090E002C0880F991F2A95E2F70C
:102A40008095242F282387E390E0FC0120832FC06A
:102A500084E390E0FC018081482F8A81282F30E0B8
:102A600081E090E002C0880F991F2A95E2F78095D7
:102A7000242F282384E390E0FC01208318C081E305
:102A800090E0FC018081482F8A81282F30E081E08E
:102A900090E002C0880F991F2A95E2F78095242FB5
:102AA000282381E390E0FC01208301C000000000A6
:102AB0000F900F900F90DF91CF910895CF93DF93F8
:102AC00000D00F92CDB7DEB789836A834B838B81A9
:102AD000813009F06FC08981882F90E083309105A3
:102AE00009F452C0843091050CF0DCC082309105AD
:102AF000A9F1833091050CF0D5C0009719F001972A
:102B0000B9F0D0C08BE390E0FC018081482F8A812E
:102B1000282F30E081E090E002C0880F991F2A95AD
:102B2000E2F7242F282B8BE390E0FC012083BAC02E
:102B300088E390E0FC018081482F8A81282F30E0D3
:102B400081E090E002C0880F991F2A95E2F7242FB8
:102B5000282B88E390E0FC012083A4C085E390E06B
:102B6000FC018081482F8A81282F30E081E090E0AD
:102B700002C0880F991F2A95E2F7242F282B85E39E
:102B800090E0FC0120838EC082E390E0FC01808114
:102B9000482F8A81282F30E081E090E002C0880F22
:102BA000991F2A95E2F7242F282B82E390E0FC015D
:102BB000208378C08B81882309F073C08981882F96
:102BC00090E08330910509F455C0843091050CF0F4
:102BD00069C082309105B9F1833091050CF062C073
:102BE000009719F00197C1F05DC08BE390E0FC0104
:102BF0008081482F8A81282F30E081E090E002C058
:102C0000880F991F2A95E2F78095242F28238BE3BC
:102C100090E0FC01208346C088E390E0FC018081C5
:102C2000482F8A81282F30E081E090E002C0880F91
:102C3000991F2A95E2F78095242F282388E390E0B6
:102C4000FC0120832FC085E390E0FC018081482FA8
:102C50008A81282F30E081E090E002C0880F991F20
:102C60002A95E2F78095242F282385E390E0FC0144
:102C7000208318C082E390E0FC018081482F8A8184
:102C8000282F30E081E090E002C0880F991F2A953C
:102C9000E2F78095242F282382E390E0FC01208333
:102CA00001C0000000000F900F900F90DF91CF91B6
:102CB0000895CF93DF9300D000D00F92CDB7DEB749
:102CC0008A836B835D834C8319828A81882F90E08D
:102CD0008330910509F443C0843091050CF050C055
:102CE0008230910559F1833091050CF049C000976D
:102CF00019F0019791F044C089E390E0FC018081D4
:102D0000882F90E02B81222F30E002C09595879587
:102D10002A95E2F78170898333C086E390E0FC0155
:102D20008081882F90E02B81222F30E002C0959582
:102D300087952A95E2F78170898322C083E390E02A
:102D4000FC018081882F90E02B81222F30E002C08F
:102D5000959587952A95E2F78170898311C080E364
:102D600090E0FC018081882F90E02B81222F30E0C1
:102D700002C0959587952A95E2F7817089830000B6
:102D80008C819D812981FC01208300000F900F9090
:102D90000F900F900F90DF91CF910895CF93DF9315
:102DA00000D0CDB7DEB789836A838A81813071F51F
:102DB0008981882F90E08330910511F1843091054D
:102DC0000CF050C082309105A9F0833091050CF0D1
:102DD00049C0009719F0019739F044C08AE390E0A8
:102DE0002FEFFC0120833EC087E390E02FEFFC0132
:102DF000208338C084E390E02FEFFC01208332C0B1
:102E000081E390E02FEFFC0120832CC08A8188238E
:102E100041F58981882F90E083309105E9F0843075
:102E2000910504F58230910591F083309105D4F439
:102E3000009719F0019731F015C08AE390E0FC018A
:102E4000108210C087E390E0FC0110820BC084E385
:102E500090E0FC01108206C081E390E0FC0110824A
:102E600001C0000000000F900F90DF91CF910895F6
:102E7000CF93DF9300D0CDB7DEB789836A838A8191
:102E8000813071F58981882F90E08330910511F1AF
:102E9000843091050CF050C082309105A9F0833048
:102EA00091050CF049C0009719F0019739F044C022
:102EB0008BE390E02FEFFC0120833EC088E390E09D
:102EC0002FEFFC01208338C085E390E02FEFFC0159
:102ED000208332C082E390E02FEFFC0120832CC0DE
:102EE0008A81882341F58981882F90E0833091057C
:102EF000E9F08430910504F58230910591F083303A
:102F00009105D4F4009719F0019731F015C08BE3C7
:102F100090E0FC01108210C088E390E0FC01108278
:102F20000BC085E390E0FC01108206C082E390E0D4
:102F3000FC01108201C0000000000F900F90DF9193
:102F4000CF910895CF93DF9300D0CDB7DEB78983BB
:102F50006A838981882F90E08330910509F452C0FB
:102F6000843091050CF064C082309105A9F1833062
:102F700091050CF05DC0009719F00197B9F058C0A9
:102F80008BE390E0FC018081482F8A81282F30E07C
:102F900081E090E002C0880F991F2A95E2F7242F64
:102FA00028278BE390E0FC01208342C088E390E077
:102FB000FC018081482F8A81282F30E081E090E059
:102FC00002C0880F991F2A95E2F7242F282788E34B
:102FD00090E0FC0120832CC085E390E0FC0180811F
:102FE000482F8A81282F30E081E090E002C0880FCE
:102FF000991F2A95E2F7242F282785E390E0FC010A
:10300000208316C082E390E0FC018081482F8A81F2
:10301000282F30E081E090E002C0880F991F2A95A8
:10302000E2F7242F282782E390E0FC0120830000B0
:1030300000000F900F90DF91CF910895CF93DF9311
:10304000CDB7DEB741E064E081E00E94631441E067
:1030500065E081E00E94631441E067E081E00E9446
:10306000631440E066E081E00E9463148DE290E02A
:10307000FC0120818DE290E02061FC0120838DE243
:1030800090E0FC0120818DE290E02160FC01208332
:103090008DE290E0FC0120818DE290E02064FC0153
:1030A000208341E064E081E00E945E150000DF9132
:1030B000CF910895CF93DF93CDB7DEB78DE290E047
:1030C000FC0120818DE290E02064FC01208341E03E
:1030D00066E081E00E94631440E064E081E00E94C9
:1030E000631440E065E081E00E94631440E067E023
:1030F00081E00E9463140000DF91CF910895CF9387
:10310000DF930F92CDB7DEB7898340E064E081E0C2
:103110000E945E158FE290E02981FC01208300006F
:103120008EE290E0FC018081881F8827881F882F0D
:1031300090E081709927892B99F38FE290E0FC0150
:1031400080810F90DF91CF910895CF93DF930F92FD
:10315000CDB7DEB789838FE290E02981FC0120831F
:1031600000008EE290E0FC018081881F8827881F84
:10317000882F90E081709927892B99F38FE290E056
:10318000FC0180810F90DF91CF910895CF93DF9361
:103190000F92CDB7DEB741E060E082E00E94631499
:1031A00041E061E082E00E94631441E062E082E07D
:1031B0000E9463140E945A1880E00E94A518898317
:1031C0008981813431F441E060E082E00E945E1543
:1031D000F3CF8981823431F441E061E082E00E94E2
:1031E0005E15EACF8981833431F441E062E082E008
:1031F0000E945E15E1CF89818335F1F640E060E001
:1032000082E00E945E1540E061E082E00E945E156F
:1032100040E062E082E00E945E15CECFA1E21A2E6D
:10322000AA1BBB1BFD010DC0AA1FBB1FEE1FFF1F6A
:10323000A217B307E407F50720F0A21BB30BE40BBA
:10324000F50B661F771F881F991F1A9469F7609501
:103250007095809590959B01AC01BD01CF010895BB
:103260000E94D61908F481E008950E9449190C942F
:10327000111A0E940A1A58F00E94031A40F029F409
:103280005F3F29F00C94FA1951110C94451A0C94D3
:10329000001A0E94221A68F39923B1F3552391F37F
:1032A000951B550BBB27AA2762177307840738F0B5
:1032B0009F5F5F4F220F331F441FAA1FA9F335D012
:1032C0000E2E3AF0E0E832D091505040E695001CC6
:1032D000CAF72BD0FE2F29D0660F771F881FBB1F80
:1032E000261737074807AB07B0E809F0BB0B802D5E
:1032F000BF01FF2793585F4F3AF09E3F510578F08A
:103300000C94FA190C94451A5F3FE4F3983ED4F3F9
:10331000869577956795B795F7959F5FC9F7880F5D
:10332000911D9695879597F90895E1E0660F771FAF
:10333000881FBB1F621773078407BA0720F0621B40
:10334000730B840BBA0BEE1F88F7E09508950E946B
:103350002A1A88F09F5798F0B92F9927B751B0F0E3
:10336000E1F0660F771F881F991F1AF0BA95C9F709
:1033700014C0B13091F00E94441AB1E008950C9449
:10338000441A672F782F8827B85F39F0B93FCCF3FC
:10339000869577956795B395D9F73EF49095809586
:1033A000709561957F4F8F4F9F4F0895990F00083B
:1033B000550FAA0BE0E8FEEF16161706E807F90707
:1033C000C0F012161306E407F50798F0621B730BA2
:1033D000840B950B39F40A2661F0232B242B252B23
:1033E00021F408950A2609F4A140A6958FEF811DC6
:1033F000811D089597F99F6780E870E060E0089567
:103400009FEF80EC089500240A94161617061806FC
:103410000906089500240A941216130614060506D8
:103420000895092E0394000C11F4882352F0BB0F69
:1034300040F4BF2B11F460FF04C06F5F7F4F8F4FCC
:103440009F4F089557FD9058440F551F59F05F3F07
:1034500071F04795880F97FB991F61F09F3F79F0B6
:1034600087950895121613061406551FF2CF469538
:10347000F1DF08C0161617061806991FF1CF8695BA
:103480007105610508940895E894BB27662777279E
:10349000CB0197F908950E94D61908F48FEF08958B
:1034A0000E94631A0C94111A0E94031A38F00E94A9
:1034B0000A1A20F0952311F00C94FA190C94001AB2
:1034C00011240C94451A0E94221A70F3959FC1F39F
:1034D000950F50E0551F629FF001729FBB27F00DC2
:1034E000B11D639FAA27F00DB11DAA1F649F662717
:1034F000B00DA11D661F829F2227B00DA11D621F66
:10350000739FB00DA11D621F839FA00D611D221F1F
:10351000749F3327A00D611D231F849F600D211D03
:10352000822F762F6A2F11249F5750409AF0F1F086
:1035300088234AF0EE0FFF1FBB1F661F771F881FEF
:1035400091505040A9F79E3F510580F00C94FA1914
:103550000C94451A5F3FE4F3983ED4F38695779533
:103560006795B795F795E7959F5FC1F7FE2B880F95
:0E357000911D9695879597F90895F894FFCFD1
:00000001FF
