:100000000C942A000C943C000C943C000C943C0092
:100010000C943C000C943C000C943C000C943C0070
:100020000C943C000C943C000C943C000C943C0060
:100030000C943C000C9459050C943C000C943C002E
:100040000C943C000C943C000C943C000C943C0040
:100050000C943C0011241FBECFE5D8E0DEBFCDBF1D
:1000600020E0A0E6B0E001C01D92A436B207E1F79F
:100070000E9498050C94D1050C940000CF93DF9357
:1000800000D00F92CDB7DEB789836A834B838B8113
:10009000813009F06FC08981882F90E0833091050D
:1000A00009F452C0843091050CF0DCC08230910517
:1000B000A9F1833091050CF0D5C0009719F0019794
:1000C000B9F0D0C08AE390E0FC018081482F8A819A
:1000D000282F30E081E090E002C0880F991F2A9518
:1000E000E2F7242F282B8AE390E0FC012083BAC09A
:1000F00087E390E0FC018081482F8A81282F30E03F
:1001000081E090E002C0880F991F2A95E2F7242F22
:10011000282B87E390E0FC012083A4C084E390E0D7
:10012000FC018081482F8A81282F30E081E090E017
:1001300002C0880F991F2A95E2F7242F282B84E309
:1001400090E0FC0120838EC081E390E0FC0180817F
:10015000482F8A81282F30E081E090E002C0880F8C
:10016000991F2A95E2F7242F282B81E390E0FC01C8
:10017000208378C08B81882309F073C08981882F00
:1001800090E08330910509F455C0843091050CF05E
:1001900069C082309105B9F1833091050CF062C0DD
:1001A000009719F00197C1F05DC08AE390E0FC016F
:1001B0008081482F8A81282F30E081E090E002C0C2
:1001C000880F991F2A95E2F78095242F28238AE328
:1001D00090E0FC01208346C087E390E0FC01808131
:1001E000482F8A81282F30E081E090E002C0880FFC
:1001F000991F2A95E2F78095242F282387E390E022
:10020000FC0120832FC084E390E0FC018081482F13
:100210008A81282F30E081E090E002C0880F991F8A
:100220002A95E2F78095242F282384E390E0FC01AF
:10023000208318C081E390E0FC018081482F8A81EF
:10024000282F30E081E090E002C0880F991F2A95A6
:10025000E2F78095242F282381E390E0FC0120839E
:1002600001C0000000000F900F900F90DF91CF9120
:100270000895CF93DF9300D00F92CDB7DEB7898377
:100280006A834B838B81813009F06FC08981882F0D
:1002900090E08330910509F452C0843091050CF050
:1002A000DCC082309105A9F1833091050CF0D5C0F6
:1002B000009719F00197B9F0D0C08BE390E0FC01F2
:1002C0008081482F8A81282F30E081E090E002C0B1
:1002D000880F991F2A95E2F7242F282B8BE390E0B3
:1002E000FC012083BAC088E390E0FC018081482FA4
:1002F0008A81282F30E081E090E002C0880F991FAA
:100300002A95E2F7242F282B88E390E0FC01208334
:10031000A4C085E390E0FC018081482F8A81282FCA
:1003200030E081E090E002C0880F991F2A95E2F743
:10033000242F282B85E390E0FC0120838EC082E3EC
:1003400090E0FC018081482F8A81282F30E081E0F5
:1003500090E002C0880F991F2A95E2F7242F282BDE
:1003600082E390E0FC01208378C08B81882309F030
:1003700073C08981882F90E08330910509F455C0BE
:10038000843091050CF069C082309105B9F1833059
:1003900091050CF062C0009719F00197C1F05DC0A3
:1003A0008BE390E0FC018081482F8A81282F30E088
:1003B00081E090E002C0880F991F2A95E2F78095AE
:1003C000242F28238BE390E0FC01208346C088E3A0
:1003D00090E0FC018081482F8A81282F30E081E065
:1003E00090E002C0880F991F2A95E2F78095242F8C
:1003F000282388E390E0FC0120832FC085E390E070
:10040000FC018081482F8A81282F30E081E090E034
:1004100002C0880F991F2A95E2F78095242F282380
:1004200085E390E0FC01208318C082E390E0FC01AA
:100430008081482F8A81282F30E081E090E002C03F
:10044000880F991F2A95E2F78095242F282382E3AD
:1004500090E0FC01208301C0000000000F900F908D
:100460000F90DF91CF910895CF93DF9300D000D00C
:100470000F92CDB7DEB78A836B835D834C8319827D
:100480008A81882F90E08330910509F443C084303D
:1004900091050CF050C08230910559F183309105DF
:1004A0000CF049C0009719F0019791F044C089E31E
:1004B00090E0FC018081882F90E02B81222F30E09A
:1004C00002C0959587952A95E2F78170898333C09C
:1004D00086E390E0FC018081882F90E02B81222F21
:1004E00030E002C0959587952A95E2F7817089835F
:1004F00022C083E390E0FC018081882F90E02B8173
:10050000222F30E002C0959587952A95E2F78170F9
:10051000898311C080E390E0FC018081882F90E006
:100520002B81222F30E002C0959587952A95E2F71E
:100530008170898300008C819D812981FC01208349
:1005400000000F900F900F900F900F90DF91CF91C0
:100550000895CF93DF9300D0CDB7DEB789836A8348
:100560008A81813071F58981882F90E083309105EF
:1005700011F1843091050CF050C082309105A9F042
:10058000833091050CF049C0009719F0019739F0BC
:1005900044C08AE390E02FEFFC0120833EC087E354
:1005A00090E02FEFFC01208338C084E390E02FEF30
:1005B000FC01208332C081E390E02FEFFC01208317
:1005C0002CC08A81882341F58981882F90E083306F
:1005D0009105E9F08430910504F58230910591F0A0
:1005E00083309105D4F4009719F0019731F015C0CC
:1005F0008AE390E0FC01108210C087E390E0FC01E8
:1006000010820BC084E390E0FC01108206C081E3FD
:1006100090E0FC01108201C0000000000F900F90DC
:10062000DF91CF910895CF93DF9300D0CDB7DEB7A0
:1006300089836A838A81813071F58981882F90E06E
:100640008330910511F1843091050CF050C0823057
:100650009105A9F0833091050CF049C0009719F07D
:10066000019739F044C08BE390E02FEFFC01208329
:100670003EC088E390E02FEFFC01208338C085E383
:1006800090E02FEFFC01208332C082E390E02FEF57
:10069000FC0120832CC08A81882341F58981882F21
:1006A00090E083309105E9F08430910504F58230C3
:1006B000910591F083309105D4F4009719F00197DA
:1006C00031F015C08BE390E0FC01108210C088E38C
:1006D00090E0FC0110820BC085E390E0FC011082E9
:1006E00006C082E390E0FC01108201C0000000001F
:1006F0000F900F90DF91CF910895CF93DF9300D0AB
:10070000CDB7DEB789836A838981882F90E08330F3
:10071000910509F452C0843091050CF064C0823018
:100720009105A9F1833091050CF05DC0009719F097
:100730000197B9F058C08BE390E0FC018081482F0D
:100740008A81282F30E081E090E002C0880F991F55
:100750002A95E2F7242F28278BE390E0FC012083E1
:1007600042C088E390E0FC018081482F8A81282FD5
:1007700030E081E090E002C0880F991F2A95E2F7EF
:10078000242F282788E390E0FC0120832CC085E3F8
:1007900090E0FC018081482F8A81282F30E081E0A1
:1007A00090E002C0880F991F2A95E2F7242F28278E
:1007B00085E390E0FC01208316C082E390E0FC0119
:1007C0008081482F8A81282F30E081E090E002C0AC
:1007D000880F991F2A95E2F7242F282782E390E0BB
:1007E000FC012083000000000F900F90DF91CF915B
:1007F0000895CF93DF93CDB7DEB741E064E081E0A9
:100800000E943E0041E065E081E00E943E0041E040
:1008100067E081E00E943E0040E066E081E00E94E7
:100820003E008DE290E0FC0120818DE290E02061AD
:10083000FC0120838DE290E0FC0120818DE290E0BC
:100840002160FC0120838DE290E0FC0120818DE29B
:1008500090E02064FC01208341E064E081E00E949C
:1008600039010000DF91CF910895CF93DF93CDB789
:10087000DEB78DE290E0FC0120818DE290E0206403
:10088000FC01208341E066E081E00E943E0040E000
:1008900064E081E00E943E0040E065E081E00E946B
:1008A0003E0040E067E081E00E943E000000DF91F2
:1008B000CF910895CF93DF930F92CDB7DEB78983A1
:1008C00040E064E081E00E9439018FE290E02981FC
:1008D000FC01208300008EE290E0FC0180818FE229
:1008E00090E0FC0180810F90DF91CF910895CF932C
:1008F000DF930F92CDB7DEB789838FE290E0298135
:10090000FC01208300008EE290E0FC0180818FE2F8
:1009100090E0FC0180810F90DF91CF9108950F93BB
:100920001F93CF93DF93CDB7DEB72A970FB6F89416
:10093000DEBF0FBECDBF6B837C838D839E838B8197
:100940009C81AD81BE81880F991FAA1FBB1F880F94
:10095000991FAA1FBB1F880F991FAA1FBB1F880FB3
:10096000991FAA1FBB1F8C019D0180E094E2A4EF98
:10097000B0E08F839887A987BA876F81788589854A
:100980009A85A90198010E94AF05DA01C901019772
:100990009A8389838AE290E0DC012C918AE290E0DC
:1009A0002860FC0120838AE290E0DC012C918AE23D
:1009B00090E02061FC01208389E290E02981DC0144
:1009C0002C9389819A81292F332780E490E0FC01C0
:1009D000208380E490E026E8DC012C9300002A9636
:1009E0000FB6F894DEBF0FBECDBFDF91CF911F9140
:1009F0000F910895CF93DF93CDB7DEB78AE290E0F1
:100A0000FC0120818AE290E02068FC012083000044
:100A1000DF91CF910895CF93DF930F92CDB7DEB7DB
:100A200000008BE290E0FC0180818823D4F78CE207
:100A300090E0FC018081898389810F90DF91CF91C3
:100A40000895CF93DF930F92CDB7DEB7898300006F
:100A50008BE290E0FC0180818295869587708823E7
:100A6000B9F38CE290E02981FC01208300000F9013
:100A7000DF91CF910895CF93DF9300D000D0CDB711
:100A8000DEB79A8389837C836B8389819A81909373
:100A90006100809360008B819C81909363008093C0
:100AA000620000000F900F900F900F90DF91CF9198
:100AB00008951F920F920FB60F9211242F933F9318
:100AC0004F935F936F937F938F939F93AF93BF9356
:100AD000EF93FF93CF93DF93CDB7DEB780916200A2
:100AE00090916300892B81F02CE230E080916000CE
:100AF00090916100F9012081FC01208380916200C6
:100B000090916300FC0109950000DF91CF91FF9166
:100B1000EF91BF91AF919F918F917F916F915F9175
:100B20004F913F912F910F900FBE0F901F901895EE
:100B3000CF93DF930F92CDB7DEB760E875E280E028
:100B400090E00E948F040E94F9030E940B058983A4
:100B500089818823D1F389810E945A04F6CFA1E2CA
:100B60001A2EAA1BBB1BFD010DC0AA1FBB1FEE1F27
:100B7000FF1FA217B307E407F50720F0A21BB30B72
:100B8000E40BF50B661F771F881F991F1A9469F7EE
:100B900060957095809590959B01AC01BD01CF014A
:060BA0000895F894FFCF58
:00000001FF
